{
  "contractName": "PriceConsumerV3",
  "abi": [
    {
      "inputs": [],
      "stateMutability": "nonpayable",
      "type": "constructor"
    },
    {
      "inputs": [],
      "name": "getThePrice",
      "outputs": [
        {
          "internalType": "int256",
          "name": "",
          "type": "int256"
        }
      ],
      "stateMutability": "view",
      "type": "function",
      "constant": true
    }
  ],
  "bytecode": "0x608060405234801561001057600080fd5b50739326bfa02add2366b30bacb125260af6410313316000806101000a81548173ffffffffffffffffffffffffffffffffffffffff021916908373ffffffffffffffffffffffffffffffffffffffff1602179055506102c8806100746000396000f3fe608060405234801561001057600080fd5b5060043610610048576000357c0100000000000000000000000000000000000000000000000000000000900480638c3c9a551461004d575b600080fd5b61005561006b565b6040516100629190610208565b60405180910390f35b60008060008060008060008054906101000a900473ffffffffffffffffffffffffffffffffffffffff1673ffffffffffffffffffffffffffffffffffffffff1663feaf968c6040518163ffffffff167c010000000000000000000000000000000000000000000000000000000002815260040160a06040518083038186803b1580156100f657600080fd5b505afa15801561010a573d6000803e3d6000fd5b505050506040513d601f19601f8201168201806040525081019061012e9190610182565b94509450945094509450839550505050505090565b6000815190506101528161024d565b92915050565b60008151905061016781610264565b92915050565b60008151905061017c8161027b565b92915050565b600080600080600060a0868803121561019a57600080fd5b60006101a88882890161016d565b95505060206101b988828901610143565b94505060406101ca88828901610158565b93505060606101db88828901610158565b92505060806101ec8882890161016d565b9150509295509295909350565b61020281610223565b82525050565b600060208201905061021d60008301846101f9565b92915050565b6000819050919050565b6000819050919050565b600069ffffffffffffffffffff82169050919050565b61025681610223565b811461026157600080fd5b50565b61026d8161022d565b811461027857600080fd5b50565b61028481610237565b811461028f57600080fd5b5056fea2646970667358221220c590b89edeb029e7058aa2ed6a67b312a01ed0a12d542d79e1c46f48402b4c8864736f6c63430008040033",
  "immutableReferences": {},
  "source": "\npragma solidity ^0.8.4;\n\nimport \"@chainlink/contracts/src/v0.6/interfaces/AggregatorV3Interface.sol\";\n\ncontract PriceConsumerV3 {\n\n    AggregatorV3Interface internal priceFeed;\n\n    /**\n     * Network: Kovan\n     * Aggregator: ETH/USD\n     * Address: 0x9326BFA02ADD2366b30bacB125260Af641031331\n     */\n    constructor() public {\n        priceFeed = AggregatorV3Interface(0x9326BFA02ADD2366b30bacB125260Af641031331);\n    }\n\n    /**\n     * Returns the latest price\n     */\n    function getThePrice() public view returns (int) {\n        (\n            uint80 roundID, \n            int price,\n            uint startedAt,\n            uint timeStamp,\n            uint80 answeredInRound\n        ) = priceFeed.latestRoundData();\n        return price;\n    }\n}\n",
  "sourcePath": "/Users/neeliyer/Documents/UNI/Pet_Projects/crypto_dev/auction_dapp_v9/auction-app/src/backend/contracts/chainlink_get_latest_price.sol",
  "compiler": {
    "name": "solc",
    "version": "0.8.4+commit.c7e474f2.Emscripten.clang"
  },
  "schemaVersion": "3.4.1",
  "updatedAt": "2021-05-28T07:05:01.438Z",
  "networkType": "ethereum",
  "devdoc": {
    "kind": "dev",
    "methods": {},
    "version": 1
  },
  "userdoc": {
    "kind": "user",
    "methods": {
      "constructor": {
        "notice": "Network: Kovan Aggregator: ETH/USD Address: 0x9326BFA02ADD2366b30bacB125260Af641031331"
      },
      "getThePrice()": {
        "notice": "Returns the latest price"
      }
    },
    "version": 1
  }
}