{
  "contractName": "SimpleAuction",
  "abi": [
    {
      "inputs": [
        {
          "internalType": "uint256",
          "name": "_biddingTime",
          "type": "uint256"
        },
        {
          "internalType": "address payable",
          "name": "_beneficiary",
          "type": "address"
        }
      ],
      "stateMutability": "nonpayable",
      "type": "constructor"
    },
    {
      "inputs": [],
      "name": "AuctionAlreadyEnded",
      "type": "error"
    },
    {
      "inputs": [],
      "name": "AuctionEndAlreadyCalled",
      "type": "error"
    },
    {
      "inputs": [],
      "name": "AuctionNotYetEnded",
      "type": "error"
    },
    {
      "inputs": [
        {
          "internalType": "uint256",
          "name": "highestBid",
          "type": "uint256"
        }
      ],
      "name": "BidNotHighEnough",
      "type": "error"
    },
    {
      "anonymous": false,
      "inputs": [
        {
          "indexed": false,
          "internalType": "address",
          "name": "winner",
          "type": "address"
        },
        {
          "indexed": false,
          "internalType": "uint256",
          "name": "amount",
          "type": "uint256"
        }
      ],
      "name": "AuctionEnded",
      "type": "event"
    },
    {
      "anonymous": false,
      "inputs": [
        {
          "indexed": false,
          "internalType": "address",
          "name": "bidder",
          "type": "address"
        },
        {
          "indexed": false,
          "internalType": "uint256",
          "name": "amount",
          "type": "uint256"
        }
      ],
      "name": "HighestBidIncreased",
      "type": "event"
    },
    {
      "inputs": [],
      "name": "auctionEndTime",
      "outputs": [
        {
          "internalType": "uint256",
          "name": "",
          "type": "uint256"
        }
      ],
      "stateMutability": "view",
      "type": "function",
      "constant": true
    },
    {
      "inputs": [],
      "name": "beneficiary",
      "outputs": [
        {
          "internalType": "address payable",
          "name": "",
          "type": "address"
        }
      ],
      "stateMutability": "view",
      "type": "function",
      "constant": true
    },
    {
      "inputs": [],
      "name": "getThePrice",
      "outputs": [
        {
          "internalType": "int256",
          "name": "",
          "type": "int256"
        }
      ],
      "stateMutability": "view",
      "type": "function",
      "constant": true
    },
    {
      "inputs": [],
      "name": "highestBid",
      "outputs": [
        {
          "internalType": "uint256",
          "name": "",
          "type": "uint256"
        }
      ],
      "stateMutability": "view",
      "type": "function",
      "constant": true
    },
    {
      "inputs": [],
      "name": "highestBidder",
      "outputs": [
        {
          "internalType": "address",
          "name": "",
          "type": "address"
        }
      ],
      "stateMutability": "view",
      "type": "function",
      "constant": true
    },
    {
      "inputs": [],
      "name": "bid",
      "outputs": [],
      "stateMutability": "payable",
      "type": "function",
      "payable": true
    },
    {
      "inputs": [],
      "name": "getEthPrice",
      "outputs": [
        {
          "internalType": "int256",
          "name": "",
          "type": "int256"
        }
      ],
      "stateMutability": "view",
      "type": "function",
      "constant": true
    },
    {
      "inputs": [],
      "name": "getAuctionOwner",
      "outputs": [
        {
          "internalType": "address",
          "name": "",
          "type": "address"
        }
      ],
      "stateMutability": "pure",
      "type": "function",
      "constant": true
    },
    {
      "inputs": [],
      "name": "getAuctionId",
      "outputs": [
        {
          "internalType": "uint256",
          "name": "",
          "type": "uint256"
        }
      ],
      "stateMutability": "pure",
      "type": "function",
      "constant": true
    },
    {
      "inputs": [],
      "name": "getHighestBidder",
      "outputs": [
        {
          "internalType": "address",
          "name": "",
          "type": "address"
        }
      ],
      "stateMutability": "view",
      "type": "function",
      "constant": true
    },
    {
      "inputs": [],
      "name": "getHighestBid",
      "outputs": [
        {
          "internalType": "uint256",
          "name": "",
          "type": "uint256"
        }
      ],
      "stateMutability": "view",
      "type": "function",
      "constant": true
    },
    {
      "inputs": [],
      "name": "getUserBalance",
      "outputs": [
        {
          "internalType": "uint256",
          "name": "",
          "type": "uint256"
        }
      ],
      "stateMutability": "view",
      "type": "function",
      "constant": true
    },
    {
      "inputs": [],
      "name": "withdraw",
      "outputs": [
        {
          "internalType": "bool",
          "name": "",
          "type": "bool"
        }
      ],
      "stateMutability": "nonpayable",
      "type": "function"
    },
    {
      "inputs": [],
      "name": "auctionEnd",
      "outputs": [],
      "stateMutability": "nonpayable",
      "type": "function"
    }
  ],
  "bytecode": "0x60806040523480156200001157600080fd5b5060405162000e8238038062000e82833981810160405281019062000037919062000116565b739326bfa02add2366b30bacb125260af6410313316000806101000a81548173ffffffffffffffffffffffffffffffffffffffff021916908373ffffffffffffffffffffffffffffffffffffffff16021790555080600160006101000a81548173ffffffffffffffffffffffffffffffffffffffff021916908373ffffffffffffffffffffffffffffffffffffffff1602179055508142620000da919062000157565b600281905550505062000255565b600081519050620000f98162000221565b92915050565b60008151905062000110816200023b565b92915050565b600080604083850312156200012a57600080fd5b60006200013a85828601620000ff565b92505060206200014d85828601620000e8565b9150509250929050565b60006200016482620001e8565b91506200017183620001e8565b9250827fffffffffffffffffffffffffffffffffffffffffffffffffffffffffffffffff03821115620001a957620001a8620001f2565b5b828201905092915050565b6000620001c182620001c8565b9050919050565b600073ffffffffffffffffffffffffffffffffffffffff82169050919050565b6000819050919050565b7f4e487b7100000000000000000000000000000000000000000000000000000000600052601160045260246000fd5b6200022c81620001b4565b81146200023857600080fd5b50565b6200024681620001e8565b81146200025257600080fd5b50565b610c1d80620002656000396000f3fe6080604052600436106100f9576000357c0100000000000000000000000000000000000000000000000000000000900480634b449cba1161009c57806391f901571161007657806391f9015714610277578063b7013dc1146102a2578063cdc90bfe146102cd578063d57bde79146102f8576100f9565b80634b449cba146101f657806367c9b017146102215780638c3c9a551461024c576100f9565b806332f098b1116100d857806332f098b11461014a57806338af3eed146101755780633ccfd60b146101a05780634979440a146101cb576100f9565b80623495a4146100fe5780631998aeef146101295780632a24f46c14610133575b600080fd5b34801561010a57600080fd5b50610113610323565b60405161012091906109f3565b60405180910390f35b61013161034d565b005b34801561013f57600080fd5b506101486104d9565b005b34801561015657600080fd5b5061015f610641565b60405161016c91906109f3565b60405180910390f35b34801561018157600080fd5b5061018a61065d565b6040516101979190610a0e565b60405180910390f35b3480156101ac57600080fd5b506101b5610683565b6040516101c29190610a52565b60405180910390f35b3480156101d757600080fd5b506101e06107a7565b6040516101ed9190610a88565b60405180910390f35b34801561020257600080fd5b5061020b6107b1565b6040516102189190610a88565b60405180910390f35b34801561022d57600080fd5b506102366107b7565b6040516102439190610a6d565b60405180910390f35b34801561025857600080fd5b506102616107c6565b60405161026e9190610a6d565b60405180910390f35b34801561028357600080fd5b5061028c61089e565b60405161029991906109f3565b60405180910390f35b3480156102ae57600080fd5b506102b76108c4565b6040516102c49190610a88565b60405180910390f35b3480156102d957600080fd5b506102e26108e3565b6040516102ef9190610a88565b60405180910390f35b34801561030457600080fd5b5061030d6108ec565b60405161031a9190610a88565b60405180910390f35b6000600360009054906101000a900473ffffffffffffffffffffffffffffffffffffffff16905090565b600254421115610389576040517fd02e774d00000000000000000000000000000000000000000000000000000000815260040160405180910390fd5b60045434116103d1576004546040517f4e12c1bb0000000000000000000000000000000000000000000000000000000081526004016103c89190610a88565b60405180910390fd5b6000600454146104565760045460056000600360009054906101000a900473ffffffffffffffffffffffffffffffffffffffff1673ffffffffffffffffffffffffffffffffffffffff1673ffffffffffffffffffffffffffffffffffffffff168152602001908152602001600020600082825461044e9190610aa3565b925050819055505b33600360006101000a81548173ffffffffffffffffffffffffffffffffffffffff021916908373ffffffffffffffffffffffffffffffffffffffff160217905550346004819055507ff4757a49b326036464bec6fe419a4ae38c8a02ce3e68bf0809674f6aab8ad30033346040516104cf929190610a29565b60405180910390a1565b600254421015610515576040517f44cee29000000000000000000000000000000000000000000000000000000000815260040160405180910390fd5b600660009054906101000a900460ff161561055c576040517f61cfdcf800000000000000000000000000000000000000000000000000000000815260040160405180910390fd5b6001600660006101000a81548160ff0219169083151502179055507fdaec4582d5d9595688c8c98545fdd1c696d41c6aeaeb636737e84ed2f5c00eda600360009054906101000a900473ffffffffffffffffffffffffffffffffffffffff166004546040516105cc929190610a29565b60405180910390a1600160009054906101000a900473ffffffffffffffffffffffffffffffffffffffff1673ffffffffffffffffffffffffffffffffffffffff166108fc6004549081150290604051600060405180830381858888f1935050505015801561063e573d6000803e3d6000fd5b50565b600073bea10eb56a156516998ec233a1b48c9a7e30a22d905090565b600160009054906101000a900473ffffffffffffffffffffffffffffffffffffffff1681565b600080600560003373ffffffffffffffffffffffffffffffffffffffff1673ffffffffffffffffffffffffffffffffffffffff168152602001908152602001600020549050600081111561079e576000600560003373ffffffffffffffffffffffffffffffffffffffff1673ffffffffffffffffffffffffffffffffffffffff168152602001908152602001600020819055503373ffffffffffffffffffffffffffffffffffffffff166108fc829081150290604051600060405180830381858888f1935050505061079d5780600560003373ffffffffffffffffffffffffffffffffffffffff1673ffffffffffffffffffffffffffffffffffffffff1681526020019081526020016000208190555060009150506107a4565b5b60019150505b90565b6000600454905090565b60025481565b60006107c16107c6565b905090565b60008060008060008060008054906101000a900473ffffffffffffffffffffffffffffffffffffffff1673ffffffffffffffffffffffffffffffffffffffff1663feaf968c6040518163ffffffff167c010000000000000000000000000000000000000000000000000000000002815260040160a06040518083038186803b15801561085157600080fd5b505afa158015610865573d6000803e3d6000fd5b505050506040513d601f19601f820116820180604052508101906108899190610931565b94509450945094509450839550505050505090565b600360009054906101000a900473ffffffffffffffffffffffffffffffffffffffff1681565b60003373ffffffffffffffffffffffffffffffffffffffff1631905090565b60006001905090565b60045481565b60008151905061090181610ba2565b92915050565b60008151905061091681610bb9565b92915050565b60008151905061092b81610bd0565b92915050565b600080600080600060a0868803121561094957600080fd5b60006109578882890161091c565b9550506020610968888289016108f2565b945050604061097988828901610907565b935050606061098a88828901610907565b925050608061099b8882890161091c565b9150509295509295909350565b6109b181610b0b565b82525050565b6109c081610af9565b82525050565b6109cf81610b1d565b82525050565b6109de81610b29565b82525050565b6109ed81610b53565b82525050565b6000602082019050610a0860008301846109b7565b92915050565b6000602082019050610a2360008301846109a8565b92915050565b6000604082019050610a3e60008301856109b7565b610a4b60208301846109e4565b9392505050565b6000602082019050610a6760008301846109c6565b92915050565b6000602082019050610a8260008301846109d5565b92915050565b6000602082019050610a9d60008301846109e4565b92915050565b6000610aae82610b53565b9150610ab983610b53565b9250827fffffffffffffffffffffffffffffffffffffffffffffffffffffffffffffffff03821115610aee57610aed610b73565b5b828201905092915050565b6000610b0482610b33565b9050919050565b6000610b1682610b33565b9050919050565b60008115159050919050565b6000819050919050565b600073ffffffffffffffffffffffffffffffffffffffff82169050919050565b6000819050919050565b600069ffffffffffffffffffff82169050919050565b7f4e487b7100000000000000000000000000000000000000000000000000000000600052601160045260246000fd5b610bab81610b29565b8114610bb657600080fd5b50565b610bc281610b53565b8114610bcd57600080fd5b50565b610bd981610b5d565b8114610be457600080fd5b5056fea2646970667358221220894ca5382b99b7bc9fc65f793acd864c8c5dcbe90bc9906ab983f4b6caee8ffc64736f6c63430008040033",
  "immutableReferences": {},
  "source": "import \"./chainlink_get_latest_price.sol\";\n\n// SPDX-License-Identifier: GPL-3.0\npragma solidity ^0.8.4;\ncontract SimpleAuction is PriceConsumerV3 {\n    // Parameters of the auction. Times are either\n    // absolute unix timestamps (seconds since 1970-01-01)\n    // or time periods in seconds.\n    address payable public beneficiary;\n    uint public auctionEndTime;\n\n    // Current state of the auction.\n    address public highestBidder;\n    uint public highestBid;\n\n    // Allowed withdrawals of previous bids\n    mapping(address => uint) pendingReturns;\n\n    // Set to true at the end, disallows any change.\n    // By default initialized to `false`.\n    bool ended;\n\n    // Events that will be emitted on changes.\n    event HighestBidIncreased(address bidder, uint amount);\n    event AuctionEnded(address winner, uint amount);\n\n    // Errors that describe failures.\n\n    // The triple-slash comments are so-called natspec\n    // comments. They will be shown when the user\n    // is asked to confirm a transaction or\n    // when an error is displayed.\n\n    /// The auction has already ended.\n    error AuctionAlreadyEnded();\n    /// There is already a higher or equal bid.\n    error BidNotHighEnough(uint highestBid);\n    /// The auction has not ended yet.\n    error AuctionNotYetEnded();\n    /// The function auctionEnd has already been called.\n    error AuctionEndAlreadyCalled();\n\n    /// Create a simple auction with `_biddingTime`\n    /// seconds bidding time on behalf of the\n    /// beneficiary address `_beneficiary`.\n    constructor(\n        uint _biddingTime,\n        address payable _beneficiary\n    ) {\n        beneficiary = _beneficiary;\n        auctionEndTime = block.timestamp + _biddingTime;\n    }\n\n    /// Bid on the auction with the value sent\n    /// together with this transaction.\n    /// The value will only be refunded if the\n    /// auction is not won.\n    function bid() public payable {\n        // No arguments are necessary, all\n        // information is already part of\n        // the transaction. The keyword payable\n        // is required for the function to\n        // be able to receive Ether.\n\n        // Revert the call if the bidding\n        // period is over.\n        if (block.timestamp > auctionEndTime)\n            revert AuctionAlreadyEnded();\n\n        // If the bid is not higher, send the\n        // money back (the revert statement\n        // will revert all changes in this\n        // function execution including\n        // it having received the money).\n        if (msg.value <= highestBid)\n            revert BidNotHighEnough(highestBid);\n\n        if (highestBid != 0) {\n            // Sending back the money by simply using\n            // highestBidder.send(highestBid) is a security risk\n            // because it could execute an untrusted contract.\n            // It is always safer to let the recipients\n            // withdraw their money themselves.\n            pendingReturns[highestBidder] += highestBid;\n        }\n        highestBidder = msg.sender;\n        highestBid = msg.value;\n        emit HighestBidIncreased(msg.sender, msg.value);\n    }\n\n    function getEthPrice() public view returns (int) {\n        return getThePrice();\n    }\n\n    function getAuctionOwner() public pure returns (address) {\n        return 0xBea10eB56a156516998Ec233a1B48C9a7e30A22d; // that's me\n    }\n\n    function getAuctionId() public pure returns (uint256) {\n        return 1;\n    }\n\n    function getHighestBidder() public view returns (address) {\n        return highestBidder;\n    }\n\n    function getHighestBid() public view returns (uint256) {\n        return highestBid; // higher and higher\n    }\n\n    function getUserBalance() public view returns (uint256) {\n        return address(msg.sender).balance;\n    }\n\n    \n\n    /// Withdraw a bid that was overbid.\n    function withdraw() public returns (bool) {\n        uint amount = pendingReturns[msg.sender];\n        if (amount > 0) {\n            // It is important to set this to zero because the recipient\n            // can call this function again as part of the receiving call\n            // before `send` returns.\n            pendingReturns[msg.sender] = 0;\n\n            if (!payable(msg.sender).send(amount)) {\n                // No need to call throw here, just reset the amount owing\n                pendingReturns[msg.sender] = amount;\n                return false;\n            }\n        }\n        return true;\n    }\n\n    /// End the auction and send the highest bid\n    /// to the beneficiary.\n    function auctionEnd() public {\n        // It is a good guideline to structure functions that interact\n        // with other contracts (i.e. they call functions or send Ether)\n        // into three phases:\n        // 1. checking conditions\n        // 2. performing actions (potentially changing conditions)\n        // 3. interacting with other contracts\n        // If these phases are mixed up, the other contract could call\n        // back into the current contract and modify the state or cause\n        // effects (ether payout) to be performed multiple times.\n        // If functions called internally include interaction with external\n        // contracts, they also have to be considered interaction with\n        // external contracts.\n\n        // 1. Conditions\n        if (block.timestamp < auctionEndTime)\n            revert AuctionNotYetEnded();\n        if (ended)\n            revert AuctionEndAlreadyCalled();\n\n        // 2. Effects\n        ended = true;\n        emit AuctionEnded(highestBidder, highestBid);\n\n        // 3. Interaction\n        beneficiary.transfer(highestBid);\n    }\n}",
  "sourcePath": "/Users/neeliyer/Documents/UNI/Pet_Projects/crypto_dev/auction_dapp_v9/auction-app/src/backend/contracts/SimpleAuction.sol",
  "compiler": {
    "name": "solc",
    "version": "0.8.4+commit.c7e474f2.Emscripten.clang"
  },
  "schemaVersion": "3.4.1",
  "updatedAt": "2021-05-28T07:05:01.431Z",
  "networkType": "ethereum",
  "devdoc": {
    "kind": "dev",
    "methods": {},
    "version": 1
  },
  "userdoc": {
    "errors": {
      "AuctionAlreadyEnded()": [
        {
          "notice": "The auction has already ended."
        }
      ],
      "AuctionEndAlreadyCalled()": [
        {
          "notice": "The function auctionEnd has already been called."
        }
      ],
      "AuctionNotYetEnded()": [
        {
          "notice": "The auction has not ended yet."
        }
      ],
      "BidNotHighEnough(uint256)": [
        {
          "notice": "There is already a higher or equal bid."
        }
      ]
    },
    "kind": "user",
    "methods": {
      "auctionEnd()": {
        "notice": "End the auction and send the highest bid to the beneficiary."
      },
      "bid()": {
        "notice": "Bid on the auction with the value sent together with this transaction. The value will only be refunded if the auction is not won."
      },
      "constructor": {
        "notice": "Create a simple auction with `_biddingTime` seconds bidding time on behalf of the beneficiary address `_beneficiary`."
      },
      "getThePrice()": {
        "notice": "Returns the latest price"
      },
      "withdraw()": {
        "notice": "Withdraw a bid that was overbid."
      }
    },
    "version": 1
  }
}